{
  "contractName": "Lottery",
  "abi": [
    {
      "inputs": [
        {
          "internalType": "string",
          "name": "_name",
          "type": "string"
        },
        {
          "internalType": "address",
          "name": "_manager",
          "type": "address"
        }
      ],
      "stateMutability": "nonpayable",
      "type": "constructor"
    },
    {
      "anonymous": false,
      "inputs": [
        {
          "indexed": false,
          "internalType": "address",
          "name": "winner",
          "type": "address"
        }
      ],
      "name": "LotteryFinished",
      "type": "event"
    },
    {
      "anonymous": false,
      "inputs": [
        {
          "indexed": false,
          "internalType": "string",
          "name": "player",
          "type": "string"
        }
      ],
      "name": "NewPlayer",
      "type": "event"
    },
    {
      "stateMutability": "payable",
      "type": "receive"
    },
    {
      "inputs": [],
      "name": "getName",
      "outputs": [
        {
          "internalType": "string",
          "name": "",
          "type": "string"
        }
      ],
      "stateMutability": "view",
      "type": "function"
    },
    {
      "inputs": [
        {
          "internalType": "uint256",
          "name": "_ticketCost",
          "type": "uint256"
        }
      ],
      "name": "activate",
      "outputs": [],
      "stateMutability": "nonpayable",
      "type": "function"
    },
    {
      "inputs": [],
      "name": "getTicketCost",
      "outputs": [
        {
          "internalType": "uint256",
          "name": "",
          "type": "uint256"
        }
      ],
      "stateMutability": "view",
      "type": "function"
    },
    {
      "inputs": [
        {
          "internalType": "string",
          "name": "_name",
          "type": "string"
        }
      ],
      "name": "buyTicket",
      "outputs": [],
      "stateMutability": "payable",
      "type": "function"
    },
    {
      "inputs": [],
      "name": "getMyInfo",
      "outputs": [
        {
          "internalType": "string",
          "name": "",
          "type": "string"
        },
        {
          "internalType": "address",
          "name": "",
          "type": "address"
        },
        {
          "internalType": "uint256",
          "name": "",
          "type": "uint256"
        }
      ],
      "stateMutability": "view",
      "type": "function"
    },
    {
      "inputs": [
        {
          "internalType": "address",
          "name": "playerAddress",
          "type": "address"
        }
      ],
      "name": "getPlayerInfo",
      "outputs": [
        {
          "internalType": "string",
          "name": "",
          "type": "string"
        },
        {
          "internalType": "address",
          "name": "",
          "type": "address"
        },
        {
          "internalType": "uint256",
          "name": "",
          "type": "uint256"
        }
      ],
      "stateMutability": "view",
      "type": "function"
    },
    {
      "inputs": [],
      "name": "pickWinner",
      "outputs": [],
      "stateMutability": "payable",
      "type": "function"
    }
  ],
  "bytecode": "0x60806040523480156200001157600080fd5b506040516200133d3803806200133d833981810160405260408110156200003757600080fd5b81019080805160405193929190846401000000008211156200005857600080fd5b838201915060208201858111156200006f57600080fd5b82518660018202830111640100000000821117156200008d57600080fd5b8083526020830192505050908051906020019080838360005b83811015620000c3578082015181840152602081019050620000a6565b50505050905090810190601f168015620000f15780820380516001836020036101000a031916815260200191505b506040526020018051906020019092919050505081600090805190602001906200011d92919062000167565b5080600260006101000a81548173ffffffffffffffffffffffffffffffffffffffff021916908373ffffffffffffffffffffffffffffffffffffffff16021790555050506200020d565b828054600181600116156101000203166002900490600052602060002090601f016020900481019282601f10620001aa57805160ff1916838001178555620001db565b82800160010185558215620001db579182015b82811115620001da578251825591602001919060010190620001bd565b5b509050620001ea9190620001ee565b5090565b5b8082111562000209576000816000905550600101620001ef565b5090565b611120806200021d6000396000f3fe6080604052600436106100745760003560e01c80635d495aea1161004e5780635d495aea146102675780637daa10ce14610271578063b260c42a14610325578063fa30b25114610360576100b9565b806317d7de7c146100be5780633a31a76b1461014e5780635932840114610179576100b9565b366100b9576100b76040518060400160405280600781526020017f756e6b6e6f776e0000000000000000000000000000000000000000000000000081525061041b565b005b600080fd5b3480156100ca57600080fd5b506100d36107ea565b6040518080602001828103825283818151815260200191508051906020019080838360005b838110156101135780820151818401526020810190506100f8565b50505050905090810190601f1680156101405780820380516001836020036101000a031916815260200191505b509250505060405180910390f35b34801561015a57600080fd5b5061016361088c565b6040518082815260200191505060405180910390f35b34801561018557600080fd5b506101c86004803603602081101561019c57600080fd5b81019080803573ffffffffffffffffffffffffffffffffffffffff169060200190929190505050610896565b60405180806020018473ffffffffffffffffffffffffffffffffffffffff168152602001838152602001828103825285818151815260200191508051906020019080838360005b8381101561022a57808201518184015260208101905061020f565b50505050905090810190601f1680156102575780820380516001836020036101000a031916815260200191505b5094505050505060405180910390f35b61026f610a79565b005b34801561027d57600080fd5b50610286610d2b565b60405180806020018473ffffffffffffffffffffffffffffffffffffffff168152602001838152602001828103825285818151815260200191508051906020019080838360005b838110156102e85780820151818401526020810190506102cd565b50505050905090810190601f1680156103155780820380516001836020036101000a031916815260200191505b5094505050505060405180910390f35b34801561033157600080fd5b5061035e6004803603602081101561034857600080fd5b8101908080359060200190929190505050610e49565b005b6104196004803603602081101561037657600080fd5b810190808035906020019064010000000081111561039357600080fd5b8201836020820111156103a557600080fd5b803590602001918460018302840111640100000000831117156103c757600080fd5b91908080601f016020809104026020016040519081016040528093929190818152602001838380828437600081840152601f19601f82011690508083019250505050505050919291929050505061041b565b005b6001600381111561042857fe5b600660009054906101000a900460ff16600381111561044357fe5b148061047457506002600381111561045757fe5b600660009054906101000a900460ff16600381111561047257fe5b145b61047d57600080fd5b60015434146104f4576040517f08c379a000000000000000000000000000000000000000000000000000000000815260040180806020018281038252600b8152602001807f57726f6e672076616c756500000000000000000000000000000000000000000081525060200191505060405180910390fd5b600073ffffffffffffffffffffffffffffffffffffffff16600760003373ffffffffffffffffffffffffffffffffffffffff1673ffffffffffffffffffffffffffffffffffffffff16815260200190815260200160002060010160009054906101000a900473ffffffffffffffffffffffffffffffffffffffff1673ffffffffffffffffffffffffffffffffffffffff16146105f8576040517f08c379a00000000000000000000000000000000000000000000000000000000081526004018080602001828103825260178152602001807f596f752061726520616c726561647920706c6179696e6700000000000000000081525060200191505060405180910390fd5b6000600760003373ffffffffffffffffffffffffffffffffffffffff1673ffffffffffffffffffffffffffffffffffffffff16815260200190815260200160002090506008339080600181540180825580915050600190039060005260206000200160009091909190916101000a81548173ffffffffffffffffffffffffffffffffffffffff021916908373ffffffffffffffffffffffffffffffffffffffff160217905550818160000190805190602001906106b6929190610fc6565b50338160010160006101000a81548173ffffffffffffffffffffffffffffffffffffffff021916908373ffffffffffffffffffffffffffffffffffffffff16021790555060088054905081600201819055506002600660006101000a81548160ff0219169083600381111561072757fe5b02179055507f55c57d4d8a0d90b701f7d16efdca8bc6604e0e3bfb9f7152376bdc4e7fa5211b600060405180806020018281038252838181546001816001161561010002031660029004815260200191508054600181600116156101000203166002900480156107d85780601f106107ad576101008083540402835291602001916107d8565b820191906000526020600020905b8154815290600101906020018083116107bb57829003601f168201915b50509250505060405180910390a15050565b606060008054600181600116156101000203166002900480601f0160208091040260200160405190810160405280929190818152602001828054600181600116156101000203166002900480156108825780601f1061085757610100808354040283529160200191610882565b820191906000526020600020905b81548152906001019060200180831161086557829003601f168201915b5050505050905090565b6000600154905090565b60606000803373ffffffffffffffffffffffffffffffffffffffff16600260009054906101000a900473ffffffffffffffffffffffffffffffffffffffff1673ffffffffffffffffffffffffffffffffffffffff161461095e576040517f08c379a00000000000000000000000000000000000000000000000000000000081526004018080602001828103825260128152602001807f4f6e6c79206d616e6167657220616c6c6f77000000000000000000000000000081525060200191505060405180910390fd5b6000600760008673ffffffffffffffffffffffffffffffffffffffff1673ffffffffffffffffffffffffffffffffffffffff1681526020019081526020016000209050806000018160010160009054906101000a900473ffffffffffffffffffffffffffffffffffffffff168260020154828054600181600116156101000203166002900480601f016020809104026020016040519081016040528092919081815260200182805460018160011615610100020316600290048015610a645780601f10610a3957610100808354040283529160200191610a64565b820191906000526020600020905b815481529060010190602001808311610a4757829003601f168201915b50505050509250935093509350509193909250565b3373ffffffffffffffffffffffffffffffffffffffff16600260009054906101000a900473ffffffffffffffffffffffffffffffffffffffff1673ffffffffffffffffffffffffffffffffffffffff1614610b3c576040517f08c379a00000000000000000000000000000000000000000000000000000000081526004018080602001828103825260128152602001807f4f6e6c79206d616e6167657220616c6c6f77000000000000000000000000000081525060200191505060405180910390fd5b6000600880549050610b4c610f6c565b81610b5357fe5b069050600060088281548110610b6557fe5b9060005260206000200160009054906101000a900473ffffffffffffffffffffffffffffffffffffffff1690508073ffffffffffffffffffffffffffffffffffffffff166108fc479081150290604051600060405180830381858888f19350505050158015610bd8573d6000803e3d6000fd5b50600760008273ffffffffffffffffffffffffffffffffffffffff1673ffffffffffffffffffffffffffffffffffffffff168152602001908152602001600020600360008201816000019080546001816001161561010002031660029004610c41929190611046565b506001820160009054906101000a900473ffffffffffffffffffffffffffffffffffffffff168160010160006101000a81548173ffffffffffffffffffffffffffffffffffffffff021916908373ffffffffffffffffffffffffffffffffffffffff160217905550600282015481600201559050506003600660006101000a81548160ff02191690836003811115610cd557fe5b02179055507fcd0a6fb3beb477df8bc4c3410ecf80a4c48b0578d3d0fa4fc2818a99bcf21fe781604051808273ffffffffffffffffffffffffffffffffffffffff16815260200191505060405180910390a15050565b60606000806000600760003373ffffffffffffffffffffffffffffffffffffffff1673ffffffffffffffffffffffffffffffffffffffff1681526020019081526020016000209050806000018160010160009054906101000a900473ffffffffffffffffffffffffffffffffffffffff168260020154828054600181600116156101000203166002900480601f016020809104026020016040519081016040528092919081815260200182805460018160011615610100020316600290048015610e365780601f10610e0b57610100808354040283529160200191610e36565b820191906000526020600020905b815481529060010190602001808311610e1957829003601f168201915b5050505050925093509350935050909192565b3373ffffffffffffffffffffffffffffffffffffffff16600260009054906101000a900473ffffffffffffffffffffffffffffffffffffffff1673ffffffffffffffffffffffffffffffffffffffff1614610f0c576040517f08c379a00000000000000000000000000000000000000000000000000000000081526004018080602001828103825260128152602001807f4f6e6c79206d616e6167657220616c6c6f77000000000000000000000000000081525060200191505060405180910390fd5b60006003811115610f1957fe5b600660009054906101000a900460ff166003811115610f3457fe5b14610f3e57600080fd5b806001819055506001600660006101000a81548160ff02191690836003811115610f6457fe5b021790555050565b6000424433604051602001808481526020018381526020018273ffffffffffffffffffffffffffffffffffffffff1660601b815260140193505050506040516020818303038152906040528051906020012060001c905090565b828054600181600116156101000203166002900490600052602060002090601f016020900481019282601f1061100757805160ff1916838001178555611035565b82800160010185558215611035579182015b82811115611034578251825591602001919060010190611019565b5b50905061104291906110cd565b5090565b828054600181600116156101000203166002900490600052602060002090601f016020900481019282601f1061107f57805485556110bc565b828001600101855582156110bc57600052602060002091601f016020900482015b828111156110bb5782548255916001019190600101906110a0565b5b5090506110c991906110cd565b5090565b5b808211156110e65760008160009055506001016110ce565b509056fea2646970667358221220084e7c43e1bea9a9af66c19abfbcacc68d5a15e2181c7ee47fbc7e1e2e45ba3864736f6c63430007000033",
  "immutableReferences": {},
  "source": "// SPDX-License-Identifier: MIT\r\npragma solidity ^0.7.0;\r\n\r\nimport { ILottery } from './ILottery.sol';\r\n\r\ncontract Lottery is ILottery {\r\n\r\n    string name;\r\n    uint ticketCost;\r\n    address manager;\r\n    Player winner;\r\n    \r\n    Status currentStatus;\r\n\r\n    struct Player {\r\n        string name;\r\n        address wallet;\r\n        uint index;\r\n    }\r\n\r\n    mapping (address => Player) players;\r\n\r\n    address payable[] playerList;\r\n\r\n    event NewPlayer(string player);\r\n    event LotteryFinished(address winner);\r\n\r\n    modifier OnlyManager() {\r\n        require(manager == msg.sender, \"Only manager allow\");\r\n        _;\r\n    }\r\n\r\n    enum Status { inactive, isPrepared, isActive, isFinished }\r\n\r\n    constructor(string memory _name, address _manager) {\r\n        name = _name;\r\n        manager = _manager; // msg.sender\r\n    }\r\n\r\n    function getName() public view override returns(string memory) {\r\n        return name;\r\n    }\r\n    \r\n    // function activate\r\n    function activate(uint _ticketCost) public OnlyManager override  {\r\n        require(currentStatus == Status.inactive);\r\n        ticketCost = _ticketCost;\r\n\r\n        currentStatus = Status.isPrepared;\r\n    }\r\n\r\n    // function getTicketCost\r\n    function getTicketCost() public view override returns (uint){\r\n        return ticketCost;\r\n    }\r\n\r\n    function buyTicket(string memory _name) public payable override  {\r\n        require(currentStatus == Status.isPrepared || currentStatus == Status.isActive);\r\n        require(msg.value == ticketCost, \"Wrong value\");\r\n        require(players[msg.sender].wallet == address(0), \"You are already playing\");\r\n\r\n        Player storage player = players[msg.sender];\r\n\r\n        playerList.push(msg.sender);\r\n\r\n        player.name = _name;\r\n        player.wallet = msg.sender;\r\n        player.index = playerList.length;\r\n\r\n        currentStatus = Status.isActive;\r\n\r\n        emit NewPlayer(name);\r\n    }\r\n\r\n    function getMyInfo() public view returns(string memory, address, uint) {\r\n        Player storage player = players[msg.sender];\r\n\r\n        return (player.name, player.wallet, player.index);\r\n    }\r\n\r\n    function getPlayerInfo(address playerAddress) \r\n        external view OnlyManager \r\n        returns(string memory, address, uint)  {\r\n\r\n        Player storage player = players[playerAddress];\r\n\r\n        return (player.name, player.wallet, player.index); // [\"\", 0, 0]\r\n    }\r\n\r\n    /*fallback() external payable {\r\n\r\n    }*/\r\n\r\n    receive() external payable {\r\n        buyTicket(\"unknown\");\r\n    }\r\n\r\n    function generateRandomNumber() private view returns(uint) {\r\n        return uint(keccak256(abi.encodePacked(\r\n            block.timestamp, \r\n            block.difficulty, \r\n            msg.sender)\r\n        ));\r\n    } \r\n\r\n    function pickWinner() OnlyManager external payable override  {\r\n        uint indexWinner = generateRandomNumber() % playerList.length;\r\n\r\n        address payable winnerAddress = playerList[indexWinner];\r\n\r\n        winnerAddress.transfer(address(this).balance);\r\n\r\n        winner = players[winnerAddress];\r\n\r\n        currentStatus = Status.isFinished;\r\n\r\n        emit LotteryFinished(winnerAddress);\r\n\r\n    }      \r\n}",
  "sourcePath": "E:\\Solidity\\Solidity Clase 4\\code\\truffle2\\LotteryAdvancedExample\\contracts\\Lottery.sol",
  "compiler": {
    "name": "solc",
    "version": "0.7.0+commit.9e61f92b.Emscripten.clang"
  },
  "schemaVersion": "3.2.5",
  "updatedAt": "2020-09-24T00:23:45.695Z",
  "networkType": "ethereum",
  "devdoc": {
    "kind": "dev",
    "methods": {},
    "version": 1
  },
  "userdoc": {
    "kind": "user",
    "methods": {},
    "version": 1
  }
}